:1000000002006541434553534F20424C4F515545E3
:1000100041444F202020205041535345204F00435E
:10002000415254414F002044494749544520412002
:1000300053454E4841002041434553534F204E45C0
:100040004741444F0041434553534F204C4942459B
:100050005241444F0030313233343536373839006D
:100060000107070508C2A2C2B4C2B612022C1202CE
:10007000F1752803AF28BF000D74011202739000C0
:10008000031202E180FE7401120273900013120247
:10009000E174C512027390001F1202E1746412032E
:1000A0000230B0FD1202F1746412030212030274F2
:1000B000011202739000261202E174C512027375D8
:1000C00080FF752700C28020840574071201472035
:1000D000850574081201472086057409120147201E
:1000E0008700D280C28120840574041201472085D4
:1000F0000574051201472086057406120147208702
:100100000312016DD281C28220840574011201475D
:1001100020850574021201472086057403120147E9
:10012000208703120176D282C283208405740012D4
:10013000014720850020860574FF12018620870371
:100140001201A8D28301C5A927B9060122F52612FA
:10015000031BE526900055931202AEE5272420F8F4
:10016000A6260527E58054F0B4F0F922229000007D
:10017000744A12034D2274C51202739000001203D8
:100180005F1202F12222A927B90001221527E527D3
:100190002420F87600741012027374201202AE74D8
:1001A000101202733086FD22A927B9067E7B0090CB
:1001B000005FEB93FCEB2420F88626ECB52640BBD1
:1001C000053A74011202739000451202E11202F125
:1001D000752803712DD2B430B5FD7401710BC2B412
:1001E000747D12030212030220B5FD747D12030216
:1001F00020B5F81202F11581158101740B80B374DA
:10020000011202739000361202E11202F1747D12A3
:1002100003021202F1747D1203021203021203029E
:10022000120302152815811581017422741412031A
:1002300002C2A175A030D2A3C2A37405120302D2D8
:10024000A3C2A31202FDD2A3C2A31202FD75A02075
:10025000D2A3C2A374051203027428120273740895
:1002600012027374011202737406120273740C1278
:10027000027322C2A3C2A1A2E792A7A2E692A6A2FB
:10028000E592A5A2E492A4D2A3C2A3C0E074051291
:100290000302D0E0A2E392A7A2E292A6A2E192A575
:1002A000A2E092A4D2A3C2A3740512030222C2A3A5
:1002B000D2A1A2E792A7A2E692A6A2E592A5A2E405
:1002C00092A4D2A3C2A31202FDA2E392A7A2E29239
:1002D000A6A2E192A5A2E092A4D2A3C2A31202FD1B
:1002E000227D00ED93B400030202F051AE0D80F3C5
:1002F000227DC8B2B67401120302DDF7227F64DFEB
:10030000FE2223FF7EFADEFEDFFA22FF7E087DFA60
:100310007CFADCFEDDFADEF6DFF2227FFA7E14E5FF
:100320008054F0B4F002216BDEF5DFF122758920F4
:10033000758700758DFDD28E759840747F7102743B
:1003400041F5993099FDC299C28EC28E224396081A
:10035000439610F0740A7102639610639608224364
:100360009608E0B4000302037151AE752700A38024
:05037000F16396082274
:00000001FF
