:1000000002006641434553534F20424C4F515545E2
:1000100041444F00202020205041535345204F00A1
:1000200043415254414F00204449474954452041DF
:100030002053454E4841002041434553534F204EE5
:10004000454741444F0041434553534F204C49429B
:10005000455241444F003031323334353637383928
:10006000000107070508C2A2C2B4C2B612023E12BE
:100070000303752803AF28BF000D74011202859099
:1000800000031202F380FE74011202859000141224
:1000900002F374C51202859000201202F3746412F8
:1000A000031430B0FD12030374641203141203141A
:1000B00074011202859000271202F374C5120285A2
:1000C0007580FF752700C280208405740712014BDC
:1000D000208505740812014B208605740912014B16
:1000E000208703120170D280C2812084057404121B
:1000F000014B208505740512014B208605740612FC
:10010000014B20870312017CD281C28220840574B6
:100110000112014B208505740212014B20860574E3
:100120000312014B208703120188D282C2832084EC
:1001300005740012014B20850020860574FF120112
:10014000982087031201BAD28301C6A927B90601F4
:1001500022F52612032DE526900056931202C0E5E3
:10016000272420F8A6260527E58054F0B4F0F922CC
:10017000900000744712035F120303229000007482
:100180004A12035F1203032274C512028590000015
:100190001203711203032222A927B9000122152795
:1001A000E5272420F87600741012028574201202CC
:1001B000C074101202853086FD22A927B9067E7B05
:1001C00000900060EB93FCEB2420F88626ECB5262B
:1001D00040BB053A74011202859000461202F312E8
:1001E0000303752803713FD2B430B5FD7401711D4E
:1001F000C2B4747D12031412031420B5FD747D1271
:10020000031420B5F81203031581158101750B80C5
:10021000B374011202859000371202F312030374C3
:100220007D120314120303747D12031412031412BB
:1002300003141203141528158115810175227414F5
:10024000120314C2A175A030D2A3C2A37405120375
:1002500014D2A3C2A312030FD2A3C2A312030F7519
:10026000A020D2A3C2A3740512031474281202851D
:1002700074081202857401120285740612028574D4
:100280000C12028522C2A3C2A1A2E792A7A2E69203
:10029000A6A2E592A5A2E492A4D2A3C2A3C0E07450
:1002A00005120314D0E0A2E392A7A2E292A6A2E173
:1002B00092A5A2E092A4D2A3C2A3740512031422B1
:1002C000C2A3D2A1A2E792A7A2E692A6A2E592A516
:1002D000A2E492A4D2A3C2A312030FA2E392A7A204
:1002E000E292A6A2E192A5A2E092A4D2A3C2A31296
:1002F000030F227D00ED93B4000302030251C00DF1
:1003000080F3227DC8B2B67401120314DDF7227F98
:1003100064DFFE2223FF7EFADEFEDFFA22FF7E0884
:100320007DFA7CFADCFEDDFADEF6DFF2227FFA7E71
:1003300014E58054F0B4F002216FDEF5DFF1227590
:100340008920758700758DFDD28E759840747F71F8
:10035000147441F5993099FDC299C28EC28E224320
:100360009608439610F0740A711463961063960809
:1003700022439608E0B4000302038351C0752700AE
:07038000A380F1639608223F
:00000001FF
